:020000040800F2
:10000000100C0024390300083F4C00083F4400084E
:100010003D4C0008370500084D5B0008000000005B
:10002000000000000000000000000000874E0008F3
:100030007507000800000000414C0008894E0008C8
:100040005703000857030008570300085703000828
:1000500057030008854E000857030008570300089F
:100060005703000857030008570300085703000808
:100070005703000857030008570300083905000814
:1000800045050008510500085703000857030008FC
:1000900057030008570300085703000857030008D8
:1000A0002D5000084550000839500008570300083B
:1000B000515000085D5000086950000857030008BF
:1000C00057030008570300085703000857030008A8
:1000D00057030008355B0008415B00085703000820
:1000E0005703000857030008000000008D50000867
:1000F000B1500008A55000089950000857030008A7
:1001000057030008570300087550000857030008FC
:1001100057030008570300085703000881500008E0
:100120005703000857030008570300085703000847
:100130005703000857030008570300085703000837
:1001400000000000000000000000000000000000AF
:100150005703000857030008570300085703000817
:100160005703000857030008570300085703000807
:1001700057030008570300085703000857030008F7
:1001800057030008570300085703000857030008E7
:1001900057030008570300085703000857030008D7
:1001A00057030008570300085703000857030008C7
:1001B00057030008570300085703000857030008B7
:1001C00057030008570300085703000857030008A7
:1001D0005703000857030008570300085703000897
:1001E0005703000857030008570300085703000887
:1001F0005703000857030008570300085703000877
:100200005703000857030008570300085703000866
:100210005703000857030008570300085703000856
:1002200057030008570300085703000800000000A8
:100230005703000857030008000000005703000898
:100240005703000857030008570300085703000826
:100250005703000857030008570300085703000816
:100260005703000857030008570300085703000806
:100270005703000857030008570300080000000058
:100280005703000857030008570300080000000048
:10029000000000005703000800F002F800F03CF8EE
:1002A0000AA090E8000C82448344AAF10107DA45D1
:1002B00001D100F031F8AFF2090EBAE80F0013F0E7
:1002C000010F18BFFB1A43F0010318470C5A000036
:1002D0002C5A0000103A24BF78C878C1FAD85207C7
:1002E00024BF30C830C144BF04680C6070470000B0
:1002F0000023002400250026103A28BF78C1FBD82F
:10030000520728BF30C148BF0B6070471FB505F0CA
:10031000BDFC1FBD10B510BD00F0D3F81146FFF7AE
:10032000F5FF05F025FC00F0F1F803B4FFF7F2FF4C
:1003300003BC00F0F9F800000A4880470A488047EB
:100340000A480047FEE7FEE7FEE7FEE7FEE7FEE7B6
:10035000FEE7FEE7FEE7FEE705480649064A074BCB
:10036000704700007D070008354F0008990200081B
:1003700010060024100C002410080024100800248B
:1003800053EA020C00F069802DE9F04B4FF00006B3
:10039000002B1FBFB3FA83F503FA05F424FA05F620
:1003A0005E4012BF1643B2FA82F502FA05F4C5F1B7
:1003B00020051EBF22FA05FC44EA0C04203556EA4B
:1003C000044C4FEA144418BF641C4FF000084FF06F
:1003D0000009904271EB030C39D3002919BFB1FA1F
:1003E00081F701FA07F6B0FA80F700FA07F6C7F1CD
:1003F00020071EBF20FA07FC46EA0C062037B6FB92
:10040000F4FCA7EB0507103F07F01F0BCBF120060C
:100410000CFA0BFB2CFA06F644BFB3460026202F3D
:10042000A4BF5E464FF0000B5BEA060C08BF4FF01E
:10043000010B19EB0B09ABFB027C48EB0608C01B58
:1004400006FB02CC0BFB03CC71EB0C01C1E70B46A6
:10045000024641464846BDE8F08B13B54FF0000018
:100460004FF00001AFF30080BDE81C4070474FF033
:10047000000200B5134694469646203922BFA0E8F4
:100480000C50A0E80C50B1F12001BFF4F7AF090700
:1004900028BFA0E80C5048BF0CC05DF804EB8900F1
:1004A00028BF40F8042B08BF704748BF20F8022B34
:1004B00011F0804F18BF00F8012B7047704770474C
:1004C0007047754600F02CF8AE4605006946534665
:1004D00020F00700854618B020B5FFF73DFFBDE8C6
:1004E00020404FF000064FF000074FF000084FF09B
:1004F000000B21F00701AC46ACE8C009ACE8C0092C
:10050000ACE8C009ACE8C0098D46704710B5044698
:10051000AFF300802046BDE81040FFF706BF0000A3
:1005200000487047AC05002401491820ABBEFEE727
:10053000260002007047FEE7014800F01FBC0000E3
:100540001C030024014800F019BC0000940300249F
:10055000014800F013BC00000C040024294A016883
:1005600091423AD0274A1832914236D0254A303249
:10057000914232D0234A483291422ED0214A6032F1
:1005800091422AD01F4A7832914226D01D4A903299
:10059000914222D01B4AA83291421ED01A4A91425F
:1005A0001BD0194A1832914217D0174A3032914263
:1005B00013D0154A483291420FD0134A603291420B
:1005C0000BD0114A7832914207D00F4A90329142B3
:1005D00003D00D4AA832914211D1CAB21823103A61
:1005E000B2FBF3F26FF30901032A02F00703074A93
:1005F000D25CC26500D9091D81650846704721F0AB
:10060000FF01F9E71000024010040240965C000868
:1006100030B5224A012301689142CAB21BD01F4C57
:100620001434A14217D01D4C2834A14213D01B4CC6
:100630003C34A1420FD0194C5034A1420BD0174C7E
:100640006434A14207D0154C7834A14203D0134C36
:100650008C34A1420CD11421114C083AB2FBF1F1B7
:100660000F4A803201F01F0504EB8101AB4010E01E
:100670000C4D1824103A0D44B2FBF4F1A82D00D80B
:100680000831094A01F01F0402EB8101064AA34028
:100690008032603080E80E0030BD000008540258FF
:1006A00000580258F0FBFDBF0008024010B5027967
:1006B000531E072B2DD8174C0168A1421BD0154C97
:1006C0001434A14217D0134C2834A14213D0114C3A
:1006D0003C34A1420FD00F4C5034A1420BD00D4CF2
:1006E0006434A14207D00B4C7834A14203D0094CAA
:1006F0008C34A14203D10849074C443102E0074938
:10070000064C443104EB8202C0E91B2101219940CF
:10071000416710BD08540258FC580258FC080240BA
:1007200010B583694FF0C074826A0146002053B14E
:10073000B3F5005F15D072B1012A0CD0022A0AD09D
:10074000032A09D104E01AB1012A06D0022A03D1F2
:10075000C96AC90100D5012010BDC96AA142FAD0F9
:1007600010BD002AF7D0012AF2D0022AF3D0032AC2
:10077000F3D010BD704772B6FEE70000054805498A
:100780000839026842F00202026008688004FCD561
:10079000704700000C4802582DE9F84F044601F05C
:1007A00065F900903CB194F83500022806D080210C
:1007B00061650020E4E00120BDE8F88FC74DC74E19
:1007C000C649183520683036DFF81483DFF81493F3
:1007D0008842DFF814A3DFF814B32ED0A8422CD03F
:1007E000B0422AD0404528D0484526D0504524D094
:1007F000584522D0BD4A183290421ED0BC4A904281
:100800001BD0BB4A1832904217D0B94A30329042BE
:1008100013D0B74A483290420FD0B54A6032904266
:100820000BD0B34A7832904207D0B14A903290420E
:1008300003D0AF4AA832904209D1026822F01E02CA
:1008400002602068426922F08002426103E002688F
:1008500022F00E02026027688F4238464DD0A8422F
:100860004BD0B04249D0404547D0484545D050458F
:1008700043D0584541D09D4A183290423DD09C4AC1
:1008800090423AD09A4A1832904236D0984A303242
:10089000904232D0964A483290422ED0944A6032EA
:1008A00090422AD0924A7832904226D0904A903292
:1008B000904222D08E4AA83290421ED08D4A904259
:1008C0001BD08C4A1432904217D08A4A2832904268
:1008D00013D0884A3C3290420FD0864A5032904220
:1008E0000BD0844A6432904207D0824A78329042D8
:1008F00003D0804A8C32974204D1206E026822F4E1
:100900008072026075492068884228D0A84226D0AB
:10091000B04224D0404522D0484520D050451ED07A
:1009200058451CD071491831884218D07049884206
:1009300015D06F491831884211D06D493031884245
:100940000DD06B494831884209D0694960318842ED
:1009500005D067497831884201D0654990310168F6
:1009600021F0010101600EE001F080F80099401AC9
:10097000052808D9202262650321002084F835105B
:1009800084F8340017E73868C007EDD1534A0121D5
:10099000206890422ED0A8422CD0B0422AD04045A8
:1009A00028D0484526D0504524D0584522D04F4B1A
:1009B000183398421ED04E4B98421BD04C4B1833E4
:1009C000984217D04A4B3033984213D0484B4833A3
:1009D00098420FD0464B603398420BD0444B78334B
:1009E000984207D0424B9033984203D0404BA833F3
:1009F000984208D194F85C703F23A06D07F01F0760
:100A0000BB40836007E094F85C30A06D03F01F03E7
:100A100001FA03F34360206890424DD0A8424BD0C6
:100A2000B04249D0404547D0484545D0504543D0D5
:100A3000584541D02D4A183290423DD02C4A904220
:100A40003AD02B4A1832904236D0294A303290425E
:100A500032D0274A483290422ED0254A6032904206
:100A60002AD0234A7832904226D0214A90329042AE
:100A700022D01F4AA83290421ED01E4A90421BD05C
:100A80001C4A1432904217D01A4A2832904213D08E
:100A9000184A3C3290420FD0164A503290420BD046
:100AA000144A6432904207D0124A7832904203D0FE
:100AB000104A8C3290420BD1D4E919024260E06EA8
:100AC00030B1026822F480720260D4E91C024260F4
:100AD000002084F8351084F834006DE610000240E0
:100AE000580002407000024088000240A00002400E
:100AF00010040240085402582DE9F05F28B190F824
:100B00003510022904D0802141650120BDE8F09F05
:100B1000904C904B0168183C18338E4ADFF83C9299
:100B2000A1428D4CDFF838E28E4FDFF83CB2DFF89F
:100B30003CA28F4D8F4E31D091422FD099422DD073
:100B4000A1422BD0494529D0714527D0B94225D0A3
:100B5000DFF810C20CF1180C61451FD0DFF808C295
:100B6000ACF1600C614519D0DFF8FCC1ACF1480C68
:100B7000614513D0DFF8F0C1ACF1300C61450DD008
:100B8000DFF8E4C1ACF1180C614507D0594505D038
:100B9000514503D0A94201D0B1422CD1DFF8B4C1F4
:100BA0004FF0040880F83580ACF1180C61451DD079
:100BB00091421BD0994219D0A14217D0494515D076
:100BC000714513D0B94211D06648183081420DD01A
:100BD00065486038814209D063484838814205D071
:100BE00061483038814201D05F481838086820F0E9
:100BF00001000860ABE0D1F800C02CF00E08DFF86F
:100C000054C1C1F80080ACF1180C0168614527D0CF
:100C1000914225D0994223D0A14221D049451FD0ED
:100C200071451DD0B9421BD0DFF838C10CF1180C4A
:100C3000614515D0DFF830C1ACF1600C61450FD0D3
:100C4000DFF824C1ACF1480C614509D0DFF818C1C8
:100C5000ACF1300C614503D0DFF80CC1ACF1180CDD
:100C6000D1F800C02CF0010CC1F800C0DFF8E4801E
:100C70004FF0010C0168A8F11808414546D0914297
:100C800044D0994242D0A14240D049453ED071451E
:100C90003CD0B9423AD0334A1832914236D0324A27
:100CA000603A914232D0304A483A91422ED02E4A90
:100CB000303A91422AD02C4A183A914226D05945CE
:100CC00024D0514522D0A94220D0B1421ED02A4A78
:100CD00091421BD0284A1432914217D0264A28321A
:100CE000914213D0244A3C3291420FD0224A5032D2
:100CF00091420BD0204A6432914207D01E4A78328A
:100D0000914203D01C4A8C32914218D1016E0A687C
:100D100022F480720A6090F85C20816D02F01F025C
:100D20000CFA02F24A60D0E919124A60C16E31B180
:100D30000A6822F480720A60D0E91C124A6000221C
:100D4000016D80F835C080F8342001B1884700205B
:100D5000DCE600002800024058000240700002401B
:100D600088000240A0000240700402408804024053
:100D7000A0040240B8040240085402582DE9FC5F68
:100D80000446F74E0020DFF8D88300904FF4165247
:100D9000F44808F11808A56DDFF8C493DFF8C0A384
:100DA000016809F1300920680AF1480AB1FBF2F143
:100DB000B04201912F68D5F800C0DFF8ACB335D050
:100DC0004146884232D0484530D050452ED0584513
:100DD0002CD0E5491831884228D0E3493031884287
:100DE00024D0E1494831884220D0E04988421DD0D2
:100DF000DE491831884219D0DC493031884215D09B
:100E0000DA494831884211D0DFF860E30EF1600E14
:100E100070450BD0D54A7832904207D0D34B9033EF
:100E2000984203D0D149A83188427DD194F85C2002
:100E3000082102F01F0201FA02F23A424AD0B042FF
:100E400032D0404530D048452ED050452CD0584562
:100E50002AD0C54A1832904226D0C34A3032904236
:100E600022D0C14A483290421ED0C04A90421BD084
:100E7000BE4A1832904217D0BC4A3032904213D04A
:100E8000BA4A483290420FD0B84A603290420BD0F2
:100E9000B64A7832904207D0B44A9032904203D09A
:100EA000B24AA832904203D1026802F0040202E082
:100EB000026802F008026AB1026822F004020260CD
:100EC00094F85C0000F01F008140A960606D40F064
:100ED0000100606594F85C00012100F01F00814072
:100EE000394240D02068B04234D0404532D04845E5
:100EF00030D050452ED058452CD09B4A18329042C5
:100F000028D0994A3032904224D0974A48329042B1
:100F100020D0964A90421DD0944A1832904219D05F
:100F2000924A3032904200E0AFE113D08F4A48320B
:100F300090420FD08D4A603290420BD08B4A78326B
:100F4000904207D0894A9032904203D0874AA83213
:100F500090427DD1406910F0800F04D0A960606D8F
:100F600040F00200606594F85C00042100F01F006E
:100F7000814039423ED02068B04232D0404530D026
:100F800048452ED050452CD058452AD0764A1832A4
:100F9000904226D0744A3032904222D0724A48326F
:100FA00090421ED0714A90421BD0704A1832904233
:100FB00017D06E4A3032904213D06C4A4832904279
:100FC0000FD06A4A603290420BD0684A7832904221
:100FD00007D0664A9032904203D0644AA8329042C9
:100FE0004ED1006810F0020F04D0A960606D40F08F
:100FF0000400606594F85C00102100F01F0081403F
:10100000394258D02068B04234D0404532D04845AB
:1010100030D050452ED058452CD0534A18329042EB
:1010200028D0514A3032904224D04F4A4832904220
:1010300020D04E4A90421DD04C4A1832904219D0CE
:101040004A4A3032904215D0484A4832904200E035
:1010500014E00FD0454A603290420BD0434A7832B8
:10106000904207D0414A9032904203D03F4AA83282
:10107000904207D1006800F0080006E0006872E7BF
:101080000068B7E7006800F00400A0B1A96020681C
:101090000168490304D50068000308D5A16C07E086
:1010A0000168C90503D4016821F008010160216CC1
:1010B00009B12046884794F85C00202100F01F0009
:1010C0008140394279D02068B04232D0404530D09A
:1010D00048452ED050452CD058452AD0224A1832A7
:1010E000904226D0204A3032904222D01E4A4832C6
:1010F00090421ED01D4A90421BD01C4A183290428A
:1011000017D01A4A3032904213D0184A48329042CF
:101110000FD0164A603290420BD0144A7832904277
:1011200007D0124A9032904203D0104AA83290421F
:1011300003D1006800F0100002E0006800F0020037
:10114000B0B3A96094F835000428206801680FD076
:1011500049037ED5006800032BD4616C2AE00000AF
:1011600010000240100000247000024010040240F1
:1011700021F0160101602068416921F08001416180
:10118000206C08B9A06C20B12068016821F008012A
:10119000016094F85C303F21012003F01F0300221E
:1011A0009940A96084F8350084F83420216D65E009
:1011B00003E0E16B09B120468847606D00287DD0CF
:1011C000606DC00759D02068042184F83510B04202
:1011D0002BD0404529D0484527D0504525D05845EB
:1011E00023D09D49884220D09B49183188421CD089
:1011F00099493031884218D09849884215D097498A
:101200001831884211D09549303188420DD0934928
:101210004831884209D091496031884205D08F49D0
:101220007831884201D08D499031016821F0010167
:10123000016020680099019A491C0091914202D8EE
:101240000168C907F6D10068C00710D003200FE07D
:10125000FFE70168C905ACD403680121002223F02F
:101260001003036084F8351084F83420A1E70120CE
:1012700084F83500002084F83400E16C00291DD08A
:1012800002B02046BDE8F05F0847754988421DD08E
:1012900073491431884219D071492831884215D0D8
:1012A0006F493C31884211D06D49503188420DD090
:1012B0006B496431884209D0694900E084E07831A3
:1012C000884203D066498C3188427DD194F85C8095
:1012D0000427016808F01F0807FA08F717EA0C0F3F
:1012E000009746D04F0744D500980F04686003D597
:1012F000C8033CD4A16CC1E7880638D42068B0424A
:101300002DD055496039884229D0484527D05045CD
:1013100025D0584523D05049884220D04E49183115
:1013200088421CD04C493031884218D04B49884201
:1013300015D04A491831884211D048493031884285
:101340000DD046494831884209D0704507D09042B7
:1013500005D0984203D04149A831884203D10168A1
:1013600021F0080102E0016821F004010160216C14
:1013700084E7022707FA08F717EA0C0F00974ED008
:101380008F074CD500980F04686003D5C80344D478
:10139000616C73E7880640D42068B0422FD02E4994
:1013A000603988422BD0484529D0504527D0584530
:1013B00025D02949884222D02749183188421ED099
:1013C00025493031884200E044E018D02349884262
:1013D00015D022491831884211D020493031884235
:1013E0000DD01E494831884209D0704507D090423F
:1013F00005D0984203D01949A831884203D1016829
:1014000021F0140102E0016821F00A0101600121CC
:1014100084F83510002084F83400E16B2EE70822B0
:1014200002FA08F212EA0C0F14D0090712D501686B
:1014300021F00E01016094F85C100120002201F0FF
:101440001F0100FA01F16960606584F8350084F8D5
:10145000342012E7BDE8FC9F8800024010040240DF
:10146000085402582DE9F05F044600F0FFFA002C02
:1014700007467DD0E34E022120684FF00308DFF8D5
:1014800088934FF00005DFF884A3B042DFF880B303
:1014900034D0DC4A1832904230D048452ED05045E6
:1014A0002CD058452AD0DA4A1832904226D0D84A51
:1014B0003032904222D0D64A483290421ED0D54A8D
:1014C00090421BD0D34A1832904217D0D14A3032C2
:1014D000904213D0CF4A483290420FD0CD4A60326A
:1014E00090420BD0CB4A7832904207D0C94A903212
:1014F000904203D0C74AA83290427DD184F835107B
:10150000B04284F834502ED0BE49183188422AD0D7
:10151000484528D0504526D0584524D0BC491831DC
:10152000884220D0BA49303188421CD0B84948316D
:10153000884218D0B749884215D0B6491831884238
:1015400011D0B449303188420DD0B2494831884277
:1015500009D0B0496031884205D0AE49783188421F
:1015600001D0AC499031016821F00101016008E02F
:1015700027E100BF00F07AFAC01B052801D920211D
:101580001CE120680068C007F4D104F1080021685C
:10159000D4E9053C8E4685C809681043D4E907287C
:1015A0001F43636A38439C4F40EA0C0010433940A4
:1015B00040EA0800042B40EA010003D1D4E90B12F1
:1015C00011430843954909686FF30F01B1F1005FBA
:1015D0000FD36168A1F12902052A08D9163A032A16
:1015E00005D9083A012A02D94F39032901D840F414
:1015F0008010CEF8000000E023E02068676A4069B0
:10160000042F20F0070047EA00070DD1D4E90A01B2
:10161000074349B12046FFF783F828B140206065B1
:10162000012184F83510CCE0206847612046FEF7A0
:1016300095FF94F85C203F2102F01F0291408160E9
:1016400054E0774A90421BD0754B1433984217D020
:10165000734B2833984213D0714B3C3398420FD0D0
:101660006F4B503398420BD06D4B6433984207D088
:101670006B4B7833984203D0694B8C3398427DD1C1
:1016800084F8351084F83450664B0168A26801EA8A
:10169000030E402A73D0802A72D00022D4E9037846
:1016A000D4E9053142EAD70242EAD8085C4AD4E9D3
:1016B000077C48EAD30848EAD10141EAD7015242FF
:1016C00041EA1C11142341EA0E0101602068104414
:1016D000B0FBF3F08000E0652046FEF73FFF94F892
:1016E0005C20012102F01F02914041602068B0425D
:1016F00057D044491831884253D0484551D05045BD
:101700004FD058454DD042491831884249D04049C0
:101710003031884245D03E494831884241D03D4928
:1017200088423ED03B49183188423AD0394930315D
:10173000884236D037494831884232D03549603105
:1017400088422ED03349783188422AD031499031AD
:10175000884226D02F49A831884222D03049884279
:101760001FD02F49143188421BD02D49283188427F
:1017700017D02B493C31884213D002E01DE017E01E
:1017800018E02749503188420BD0254964318842FE
:1017900007D023497831884203D021498C318842CF
:1017A00029D12046FEF734FFA06880280CD00CE039
:1017B000102273E74FF4804270E74021616584F89E
:1017C00035800120BDE8F09F6560216E20790860BA
:1017D000D4E9190141606068401E072808D82046F6
:1017E000FEF764FFE06E0560D4E91C01416002E091
:1017F000E566256765670120656584F8350000208A
:10180000E0E70000100002404000024058000240A3
:1018100070000240100402403F8010FE0010005C87
:10182000085402580F00FEFF2DE9F84F03247D4DA8
:1018300000234FF001094FF0B04B4FF00F0AE9E0E1
:1018400009FA03F73A4076D00E7906F00306012E26
:1018500001D0022E18D1D0F808C04FEA430ECE684E
:1018600004FA0EF82CEA080C06FA0EF646EA0C0604
:101870008660D0F804C00E792CEA070CC6F3001677
:101880009E4046EA0C0646600E79F643B6070BD03A
:10189000C6684FEA43088F6804FA08FC26EA0C067B
:1018A00007FA08F73743C7600E7906F00306022EE1
:1018B00012D1DE080F694FEA437C00EB8606B6467C
:1018C000366A4FEADC6C0AFA0CF807FA0CF726EADB
:1018D00008063743CEF820700F7906684FEA4308B0
:1018E00007F0030704FA08FC07FA08F726EA0C06D3
:1018F000374307604E6816F4403F1CD04A4E3768A5
:1019000047F00207376036689F0706F00206009628
:1019100023F0030606F1B046B6463F0FD6F808643A
:10192000DFF808810AFA07FC404526EA0C0603D1D5
:101930004FF0000C41E06CE0DFF8F4C0604502D1EC
:101940004FF0010C39E0DFF8ECC0604502D14FF0F8
:10195000020C32E0DFF8E0C0604502D14FF0030C2A
:101960002BE0DFF8D8C0604502D14FF0040C24E032
:10197000DFF8CCC0604502D14FF0050C1DE0DFF868
:10198000C4C0604502D14FF0060C16E0DFF8B8C0C5
:10199000604502D14FF0070C0FE0DFF8B0C06045A2
:1019A00002D14FF0080C08E0DFF8A4C0604502D176
:1019B0004FF0090C01E04FF00A0C0CFA07FC4CEA5E
:1019C000060CCEF808C44F68DBF80060FF0226EA78
:1019D000020600D516435F46CBF80060D1F804C07C
:1019E000DBF804605FEA8C2C26EA020600D5164379
:1019F0007E606E684F6826EA0206BF0300D5164374
:101A00006E602E684F6826EA0206FF0300D5164373
:101A10002E605B1C0A6832FA03F67FF411AFBDE852
:101A2000F88F000080000058F4440258000002586B
:101A30000004025800080258000C02580010025816
:101A40000014025800180258001C025800200258C6
:101A5000002402580AB1816170470904FBE70000C5
:101A600001480068000C70470010005C0148806865
:101A70007047000004000024024881680278114485
:101A80008160704704000024032010B500F0DCF8EA
:101A900001F0B6F80F4A104914681368C4F3032222
:101AA00003F00F038A5CC95C02F01F0201F01F0102
:101AB000D0400A4A20FA01F11160094908600F205C
:101AC00000F010F808B1012010BD00F079F80020F6
:101AD00010BD000018440258C65C00081400002421
:101AE0001000002470B50D4D04462878A0B14FF4C5
:101AF0007A71B1FBF0F00A490968B1FBF0F001F02E
:101B0000DCFB48B9102C07D200222146501E00F001
:101B10007BF800206C6070BD012070BD04000024C3
:101B200010000024154BF0B5083B427813491A60A9
:101B30000B680A1F23F001030B6043681360057BE9
:101B4000C67A827A437B2D07847B45EA0665C77B8C
:101B500090F809C0067A90F800E045EAC24040EAF1
:101B6000834040EA444040EA074040EA0C2040EA13
:101B7000460040EA0E000860F0BD0000A0ED00E065
:101B8000BFF35F8F044800210368034A23F48033C6
:101B9000036070321160704724ED00E0074A40F0A6
:101BA0000100064970321060086840F48030086017
:101BB000BFF34F8FBFF36F8F7047000024ED00E03D
:101BC000094808B5016841F002010160006800227F
:101BD000114600F002000090052000F015F8BDE865
:101BE0000840052000F002B8F4440258002809DB40
:101BF000410900F01F028900012001F1E02190401D
:101C0000C1F80001704700000E4BF0B41B680D4690
:101C1000C3F30223C3F10706042E00D90426191DBD
:101C2000072901D2002300E0DB1E012404FA06F19B
:101C30009C40491E2940641E994014402143F0BC39
:101C400003F085BF0CED00E0064900F0070210B577
:101C50004FF6FF040868044B204040EA0220184376
:101C6000086010BD0CED00E00000FA05134970B5E6
:101C70000A68D243520705D5096801F0070181427D
:101C800013D118E00A6822F0070202430A60FFF746
:101C9000EDFE0A4D4FF47A760446083D07E000BF9A
:101CA000FFF7E4FE001BB04201D9012070BD286897
:101CB000C0438004F4D4002070BD00000C480258DA
:101CC00010B500F057FF05490968054AC1F3021134
:101CD000515C01F01F01C84010BD000020440258B3
:101CE000C65C0008494930B5484C0B1D0A681434DD
:101CF00009681D68246802F00303C5F30012C1F3EC
:101D00000531C4F3CC04002914FB02F200EE102AC2
:101D1000F8EE400A75D03F4A9FED3D1AB7EE000A33
:101D20006BB1DFED3D1A012B01D0022B64D002EE26
:101D3000101A1168F8EE422A81EEA22A21E0334CF3
:101D4000283C23689B0612D5344B246801EE901A78
:101D50001168C4F3C104F8EE612AE34001EE903A41
:101D6000C1F30801F8EE611A81EEA22A0BE001EE40
:101D7000901ADFED2B2A00BFF8EE611A116882EE8F
:101D8000A12AC1F3080101EE901A1168F8EE611A58
:101D900040EE811A71EE800A62EE200AC1F34621FC
:101DA00001EE101AB8EE411A31EE001AC0EE811A97
:101DB000BCEEE11A80ED001A1168C1F3064101EE94
:101DC000101AB8EE411A31EE001AC0EE811ABCEEBC
:101DD000E11A80ED011A1168C1F3066101EE101AD3
:101DE000B8EE411A31EE000A80EE801ABCEEC10A4C
:101DF00080ED020A30BD04E001EE901ADFED092A01
:101E0000BAE70021016041608160F3E7284402588D
:101E100000000039384402580024744A0090D0036E
:101E20000024744C0024F44A494930B5484C0B1D39
:101E30000A681C3409681D68246802F00303C5F3AE
:101E40000022C1F30551C4F3CC04002914FB02F2B3
:101E500000EE102AF8EE400A75D03F4A9FED3D1A79
:101E6000B7EE000A6BB1DFED3D1A012B01D0022B5A
:101E700064D002EE101A1168F8EE422A81EEA22A0E
:101E800021E0334C283C23689B0612D5344B246850
:101E900001EE901A1168C4F3C104F8EE612AE34020
:101EA00001EE903AC1F30801F8EE611A81EEA22A20
:101EB0000BE001EE901ADFED2B2A00BFF8EE611A5D
:101EC000116882EEA12AC1F3080101EE901A11688F
:101ED000F8EE611A40EE811A71EE800A62EE200A75
:101EE000C1F3462101EE101AB8EE411A31EE001A84
:101EF000C0EE811ABCEEE11A80ED001A1168C1F340
:101F0000064101EE101AB8EE411A31EE001AC0EE89
:101F1000811ABCEEE11A80ED011A1168C1F3066165
:101F200001EE101AB8EE411A31EE000A80EE801A66
:101F3000BCEEC10A80ED020A30BD04E001EE901A49
:101F4000DFED092ABAE70021016041608160F3E713
:101F50002844025800000039404402580024744AC2
:101F60000090D0030024744C0024F44A2DE9FE4F65
:101F70000546DFF8E48350F8081B0024F64FC943F8
:101F8000019005F12800264608F124080090080178
:101F90001DD4A86E50B1B0F5801F0CD0B0F5001F55
:101FA0000ED0B0F5401F1ED001240FE0386840F479
:101FB0000030386017E00198022102F043FE03E090
:101FC0000098022102F0CEFE04000CD0264628889C
:101FD000C043C00523D4A86D05281ED2DFE800F059
:101FE0000C11161B1B00AA6ED8F8001021F440112A
:101FF0001143C8F80010EAE7386840F40030386050
:1020000009E00198002102F01DFE03E00098002184
:1020100002F0A8FE044674B100E001242646288898
:10202000C043800528D4E86D80281ED00CDC90B118
:1020300040280ED114E0AA6DD8F8001021F0070155
:102040001143C8F80010EAE7C02813D0B0F5807F2C
:1020500010D001240FE0386840F40030386009E007
:102060000198002102F0EEFD03E00098002102F04B
:1020700079FE04469CB126462888DFF8DC92C043EE
:1020800009F12C0940052CD4D5F8A800B0F5800F33
:1020900020D00DDCA0B1B0F5001F0FD115E0EA6D26
:1020A000D8F8001021F4E0711143C8F80010E3E7FC
:1020B000B0F5C00F13D0B0F5000F10D001240FE021
:1020C000386840F40030386009E00198002102F0DF
:1020D000B9FD03E00098002102F044FE04467CB103
:1020E00026462888C04300052DD4D5F8AC00B0F1B1
:1020F000007F21D00EDCA8B1B0F1807F10D116E0B6
:10210000D5F8A820D9F8001021F460011143C9F8CE
:102110000010E6E7B0F1407F13D0B0F1806F10D02F
:1021200001240FE0386840F40030386009E001987D
:10213000002102F087FD03E00098002102F012FE6A
:10214000044674B126462868C04380011FD4E86C59
:10215000D8B110280FD0202812D0302815D0012453
:1021600014E0D5F8AC20D9F8001021F0E06111435B
:10217000C9F80010E7E7386840F40030386004E040
:102180000198022102F05EFD044674B126462888BB
:10219000C043C0042BD4286EB0F5005F20D00DDC06
:1021A000A0B1B0F5805F0FD115E06B48EA6C20302C
:1021B000016821F0300111430160E8E7B0F5405FAC
:1021C00013D0B0F5804F10D001240FE0386840F4F0
:1021D0000030386009E00198002102F033FD03E08F
:1021E0000098002102F0BEFD04468CB126462888E6
:1021F000C043800429D4686EB0F5403F23D010DC82
:1022000008B3B0F5803F14D0B0F5003F0FD115E012
:102210002A6ED8F8001021F4E0411143C8F80010EC
:10222000E5E7B0F5802F0ED0B0F5A02F0BD001243C
:102230000AE00198012102F005FD03E00098012168
:1022400002F090FD044694B126462888C04340041D
:102250002AD4D5F8B000B0F1405F23D010DC08B329
:10226000B0F1805F14D0B0F1005F0FD115E06A6E5D
:10227000D8F8001021F4E0211143C8F80010E4E779
:10228000B0F1804F0ED0B0F1A04F0BD001240AE086
:102290000198012102F0D6FC03E00098012102F030
:1022A00061FD044674B126462888C04300041FD44B
:1022B000286FD8B1B0F1805F0ED0B0F1005F10D0C0
:1022C000012414E0D5F8B020D9F8001021F0E04145
:1022D0001143C9F80010E7E7386840F4003038606F
:1022E00004E00198012102F0ADFC044674B12646D9
:1022F0002868C043C0011ED4A86CD0B101280ED0FC
:10230000022811D0032814D0012413E02A6FD8F832
:10231000001021F040511143C8F80010E8E7386878
:1023200040F40030386004E00198022102F08AFC99
:102330000446ACB126462868DFF81CB0C043ABF1B8
:102340001C0B400252D40548016841F480710160C1
:10235000FFF78CFB824611E02C44025800480258DB
:10236000FA48AA6C016821F0030111430160E2E719
:10237000FFF77CFBA0EB0A00642835D8F44800681E
:10238000C005F5D58CBBDFF8C4A3B5F8B4100AF1CD
:10239000240ADAF8000001F4407100F44070884229
:1023A00011D0DAF80010DAF8002021F4407142F47C
:1023B0008032CAF80020DAF8002022F48032CAF80D
:1023C0000020CAF80010D5F8B400B0F5807F1AD10B
:1023D000FFF74CFB029012E0FFF748FB0299411A0D
:1023E00041F2883081420AD9032426462878DFF852
:1023F0005CA3C0430AF1080AC00721D03CE0DAF828
:1024000000008007E8D5D5F8B410C1F301200328F7
:1024100058460DD0016821F47C510160B5F8B42014
:10242000DAF80010C2F30B021143CAF80010DDE71E
:10243000C84A036802EA111223F47C511143ECE705
:10244000E86F182816D005DCA0B1082808D010289D
:1024500004D10AE020280DD028280BD001240AE05E
:102460000198012102F0EEFB03E00098012102F047
:1024700079FC044664B126462878C04380071ED400
:10248000A86F062819D2DFE800F0160C11161616F0
:10249000EA6FDAF8001021F038011143CAF8001091
:1024A000EAE70198012102F0CDFB03E00098012149
:1024B00002F058FC04467CB100E00124264628784E
:1024C000C04340071FD4D5F89400062819D2DFE88E
:1024D00000F0160C11161616AA6FDAF8001021F08B
:1024E00007011143CAF80010E9E70198012102F041
:1024F000A9FB03E00098012102F034FC0446A4B1DA
:1025000000E0012426462878C04380062BD4D5F865
:102510009000B0F1405F24D011DC10B3B0F1805FC7
:1025200015D0B0F1005F10D116E0D5F89420D9F89D
:10253000001021F007011143C9F80010E3E7B0F1E2
:10254000804F0ED0B0F1A04F0BD001240AE00198CB
:10255000002102F077FB03E00098022102F002FC68
:10256000044694B126462878C04340062BD4D5F8BB
:102570009C00B0F5406F24D011DC10B3B0F5806F33
:1025800015D0B0F5006F10D116E0D5F89020DAF82C
:10259000001021F0E0411143CAF80010E3E7B0F564
:1025A000805F0ED0B0F5A05F0BD001240AE0019847
:1025B000002102F047FB03E00098022102F0D2FB69
:1025C000044694B126462878C04300062BD4D5F89B
:1025D000A000B0F5C04F24D011DC10B3B0F5005FFF
:1025E00015D0B0F5804F10D116E0D5F89C20D9F861
:1025F000001021F4E0511143C9F80010E3E7B0F5F1
:10260000004F0ED0B0F5204F0BD001240AE0019806
:10261000002102F017FB03E00098022102F0A2FB68
:10262000044654B126462878C04300071ED4D5F886
:102630008400B0F5805F0AD00FE0D5F8A020D9F86B
:10264000001021F460411143C9F80010EBE7009835
:10265000022102F087FB00B10126D5F88420DAF8C8
:10266000001021F440511143CAF800102878C043EB
:10267000C00613D4D5F89800B0F5807F05D1009836
:10268000022102F06FFB00B10126D5F89820D9F89D
:10269000001021F440711143C9F800102868C043AC
:1026A000000316D4D5F8A40038B1B0F5803F09D0A6
:1026B000B0F5003F0BD001240AE00198002102F0A0
:1026C000C1FA03E00098022102F04CFB04468CB1F1
:1026D00026462868C043400322D4D5F88800B0F5C8
:1026E000801F11D0B0F5001F13D0B0F5401F15D0DA
:1026F000012414E0D5F8A420D9F8001021F44031C9
:102700001143C9F80010E4E7386840F4003038603D
:1027100004E00098012102F025FB04465CB1264646
:102720002868C043C00323D4286DA8B1B0F5803F0A
:1027300017D001241BE0D5F88820DAF8001021F426
:1027400040111143CAF80010EAE700004C44025857
:1027500000480258CFFFFF00386840F4003038606E
:1027600004E00198022102F06DFA0446E4B1264625
:102770002868C043800005D40098022102F0F2FAD4
:1027800000B101262868C04380031BD4D5F880001F
:10279000B0B1B0F5807F0FD0B0F5007F10D0B0F5AC
:1027A000407F0DD001240CE05A482A6D016821F4C5
:1027B000803111430160DBE7386840F40030386055
:1027C000ECB326462868C043C00207D46A6FD8F825
:1027D000001021F000411143C8F800102868C043E0
:1027E000C00008D4D5F8B820DBF8001021F48041EF
:1027F0001143CBF800102868C043800207D4EA6E6A
:10280000D8F8001021F080711143C8F80010286832
:10281000C04340000CD4DBF8001021F40041CBF899
:102820000010DBF80010D5F8BC201143CBF80010E5
:102830002868C04308D437486A6D016800E018E092
:1028400021F04051114301602868C043000208D4C0
:10285000D5F88C20DAF8001021F440011143CAF8B1
:10286000001028790024C04300F0010020430AD062
:102870000FE0D5F88020DAF8001021F44071114300
:10288000CAF800109EE70198002102F0DBF900B1C0
:1028900006462879C04300F00200204305D1019884
:1028A000012102F0CFF900B106462879C04300F0BB
:1028B0000400204305D10198022102F0C3F900B1C0
:1028C00006462879C04300F00800204305D100984F
:1028D000002102F047FA00B106462879C04300F013
:1028E0001000204305D10098012102F03BFA00B10D
:1028F00006462879C04300F02000044304D1009824
:10290000022102F02FFA00B916B10120BDE8FE8FB6
:102910000020FBE74C4402582DE9F05F04000F460D
:102920007ED0DFF83882D8F8000000F00F00B842FF
:102930000CD2D8F8001021F00F013943C8F800106C
:10294000D8F8000000F00F00B84269D12078844D1B
:1029500040070AD52069296801F07001884204D92E
:10296000296821F070010143296020787C4E361DD2
:1029700000070AD56069316801F07001884204D906
:10298000316821F07001014331602078C0060AD51A
:10299000A069316801F4E061884204D9316821F40A
:1029A000E061014331602078DFF8B4B180060BF1BB
:1029B000080B0CD5E1695846DBF8002002F07002E4
:1029C000914204D9026822F070020A430260207822
:1029D00080070AD5E068296801F00F01884204D910
:1029E000296821F00F01014329602078C0073ED0FB
:1029F0005B49A2682868183920F470601043286089
:102A00006068022818D0032819D00968012819D055
:102A1000490700294ADADFF848A1AAF1080A00E0CC
:102A200044E0DAF8002022F007020243CAF800204E
:102A3000FFF71CF8814612E009688903E9E7096895
:102A40008901E6E7C905E4E7FFF710F8A0EB090103
:102A500041F28830814202D90320BDE8F09F6168CD
:102A6000DAF8000000F03800B0EBC10FECD12078AC
:102A700080070AD5E068296801F00F01884204D276
:102A8000296821F00F0101432960D8F80010404661
:102A900001F00F01B9420BD9016821F00F01394350
:102AA0000160006800F00F00B84201D00120D4E7B7
:102AB000207840070AD52069296801F07001884212
:102AC00004D2296821F070010143296020780007B1
:102AD0000AD56069316801F07001884204D231681A
:102AE00021F07001014331602078C0060AD5A06949
:102AF000316801F4E061884204D2316821F4E06178
:102B000001433160207880060CD5E1695846DBF836
:102B1000002002F07002914204D2026822F070029A
:102B20000A43026000F06CF80E492A682B68C2F371
:102B3000032203F00F038A5CC95C02F01F0201F05C
:102B40001F01D040084A20FA01F1116007490860CE
:102B500007480068BDE8F05FFEF7C4BF00200052E0
:102B600018440258C65C0008140000241000002419
:102B70000800002430B500F043F80B4A0B490C4B19
:102B800015681468C5F3032204F00F048A5C095D1C
:102B900002F01F0201F01F01D040064A20FA01F1A5
:102BA00019601060084630BD18440258C65C000821
:102BB000140000241000002400B5FFF7DBFF0549D6
:102BC0000968054AC1F30211515C01F01F01C840B8
:102BD00000BD00001C440258C65C000800B5FFF7A9
:102BE000C9FF05490968054AC1F30221515C01F09A
:102BF0001F01C84000BD00001C440258C65C00080C
:102C0000454970B545480968434B103B11F03802FF
:102C100008D00111082A03D0102A0BD0182A0BD093
:102C2000084670BD19688906FBD51968C1F3C10152
:102C3000C84070BD3A4870BD3749374D18310C1D3A
:102C400024350A68096826682D6802F0030406F036
:102C50000102C1F30511C5F3CC0515FB02F200EE2C
:102C6000102AB8EE400AE9B32F4ADFED2E0AB7EE7C
:102C7000001A6CB1DFED2D1A012C01D0022C43D0CB
:102C800002EE101A1068F8EE422A81EEA22A1EE027
:102C90001C68A40611D51B6801EE901A1168C3F3D5
:102CA000C103F8EE612AD84001EE900AC1F3080092
:102CB000F8EE611A81EEA22A0BE001EE901ADFED28
:102CC0001C2A00BFF8EE611A106882EEA12AC0F338
:102CD000080001EE900AF8EE611A40EE201A31EE7B
:102CE000810A00E015E022EE000A1068C0F34620D9
:102CF000401C00EE900AF8EE600A80EE201ABCEE4E
:102D0000C10A10EE100A70BD01EE901ADFED092A1B
:102D1000D8E7002070BD0000104402580090D00396
:102D200000127A0000000039304402580024744A2E
:102D30000024744C0024F44A2DE9F05F04007DD097
:102D4000FF4F2078FE4D1837DFF8F493103DC00791
:102D500048D0D9F80000396800F03800102815D0A4
:102D6000182803D101F0030002280FD06068B0F5E5
:102D7000803F12D010B1B0F5A02F18D0286820F4F1
:102D800080302860286820F4802009E028688003CB
:102D900028D560680028D2D024E0286840F480302C
:102DA0002860606888B1FEF761FE064609E0286881
:102DB00040F480202860F0E7FEF758FE801B64286E
:102DC0006FD828688003F7D50CE0FEF74FFE064663
:102DD00005E000BFFEF74AFE801B6428F0D8286893
:102DE0008003F7D4207841F20308D54E0C3E8007CB
:102DF00069D5D9F80000396810F038000ED01828CD
:102E000001D188070AD0E06890B3296821F0190140
:102E100001432960FEF72AFE824631E02868400718
:102E200002D5E06800288AD0E168286820F01900FF
:102E300008432860FEF71AFE824607E0DFE000BF85
:102E4000FEF714FEA0EB0A000228B9D82868400754
:102E5000F6D500BFFEF704FE40451BD82069402888
:102E600012D0316821F47C3141EA003030602AE030
:102E700018E000BFFEF7FAFDA0EB0A0002289FD879
:102E800028684007F6D5E5E7306820F47C3040F448
:102E90000030EBE7207C316821F0FE4141EA006020
:102EA000E4E70DE1286820F001002860FEF7DEFD70
:102EB000824605E0FEF7DAFDA0EB0A0002288DD875
:102EC00028684007F6D42078C0065DD5D9F8000000
:102ED000DFF86CB2396800F03800ABF1040B082859
:102EE00010D0182803D101F0030001280AD0E069AE
:102EF0000028286838D040F080002860FEF7B6FD32
:102F0000824623E02868C00523D5E069802876D171
:102F10001FE0206A202821D0316821F0F84141EAE1
:102F20008060306030E000BF94F82010DBF80020B3
:102F300022F07C5242EA0161CBF8001024E000BF8D
:102F4000FEF794FDA0EB0A00022898D82868C00577
:102F5000F6D5FEF785FD4045E6D8DAE7306820F083
:102F6000F84040F08040DCE720F080002860FEF769
:102F70007DFD064605E000BFFEF778FD801B0228B8
:102F80009DD82868C005F7D42078000729D56C485B
:102F90006169643000298046016811D041F0010167
:102FA0000160FEF763FD064605E000BFFEF75EFD2B
:102FB000801B0228C9D8D8F800008007F6D510E099
:102FC00021F001010160FEF751FD064605E000BF5A
:102FD000FEF74CFD801B022872D8D8F8000080074D
:102FE000F6D42078800623D5A0690028286810D060
:102FF00040F480502860FEF739FD064605E036E1D2
:10300000FEF734FD801B02285AD828688004F7D5C3
:103010000EE020F480502860FEF728FD064604E00C
:10302000FEF724FD801B02284AD828688004F7D4C4
:10303000207840074FD5DFF80C81D8F8001041F414
:103040008071C8F80010FEF711FD064605E000BFCC
:10305000FEF70CFD801B642832D8D8F80000C005AC
:10306000F6D5374EA068603601280AD008B1052889
:1030700013D0306820F001003060306820F0040088
:1030800002E0306840F001003060A06841F2883A08
:1030900090B1FEF7EBFC80460AE0306840F0040097
:1030A0003060EEE7FEF7E2FCA0EB0801514507D8DF
:1030B00030688007F6D50EE0FEF7D8FC804607E0C2
:1030C00084E000BFFEF7D2FCA0EB080151457DD89B
:1030D00030688007F6D4606AB0B3DFF86480D9F84E
:1030E000001008F120084FF6F87B08F10409C1F33D
:1030F000C2010329A8F1040A69D00228286820F037
:103100008070286003D0FEF7B1FC044684E0FEF72F
:10311000ADFC064605E000BFFEF7A8FC801B0228B8
:1031200077D828688001F7D4E26A40F2F331386832
:1031300054F8283F884340EA02101843386004E0FE
:103140001044025800480258B5E0217B43462289CA
:103150004FF4FE0C208A4FF0FE474902267D521E96
:10316000401EA1F50071C2F308088AB2761E0CEA6F
:10317000004042EA08020243504607EA06610A4359
:103180001A60DAF8002022F00102CAF80020D9F80B
:103190000020266A22EA0B0242EAC602C9F8002091
:1031A000DAF80010A26921F00C011143CAF80010EE
:1031B0000168E26921F0020111430160016841F4F4
:1031C00080310160016841F4003101E021E027E035
:1031D0000160016841F480210160016841F0010152
:1031E0000160286840F080702860FEF73FFC0446CC
:1031F00005E000BFFEF73AFC001B022809D828684A
:103200008001F7D557E000BFFEF730FC001B022815
:1032100002D90320BDE8F09F28688001F4D44AE079
:1032200039680128D8F8000021D0A26A01F0030310
:1032300093421CD1E26AC1F305118A4217D1216B76
:10324000C0F30802491E8A4211D1616BC0F34622C5
:10325000491E91420BD1A16BC0F30642491E914217
:1032600005D1E16BC0F30660491E814201D0012007
:10327000D0E7A16C4E46D9F80000C0F3CC008142E3
:1032800019D0DAF80000554620F00100CAF8000015
:10329000FEF7ECFB4FEA0007FEF7E8FBB842FBD075
:1032A000A26C306820EA0B0040EAC2003060286857
:1032B00040F0010028600020ACE7401EB0F1807FA4
:1032C00010B501D3012010BD4FF0E02460610F2143
:1032D000601702F03CFC0020A0610721216110BDB5
:1032E00070477047704700002DE9F04390F83C208C
:1032F000012A42D0012280F83C2051F80C4BDFF823
:1033000080804FF0000991E8680051E9022723F41A
:103310004073B1F80CC03B43CF6923F4806313437F
:10332000026823F40063234323F4805343EA050334
:1033300023F4005343EA060323F4804343EA0703DC
:103340000C3923F47023424543EA0C4302D00D4C60
:10335000A2420CD18D8C23F47006D1E9073446EAE1
:10336000055121F08071194321F000732343536408
:1033700080F83C900020BDE8F0830220FBE70000CD
:103380000000014000040140F0B590F83C20012A03
:103390003BD01F4E012480F83C40022280F83D20A3
:1033A00002681C4D5368B242D2F808C001D0AA424C
:1033B00003D14F6823F470033B430F6823F070037D
:1033C0001F4357600268B24213D0B2F1804F10D051
:1033D000114B9A420DD0114B9A420AD0104B9A428F
:1033E00007D0AA4205D00F4B9A4202D00E4B9A4208
:1033F00004D189682CF0800319439160002180F882
:103400003D4080F83C100846F0BD0220F0BD0000B1
:10341000000001400004014000040040000800409A
:10342000000C0040001800400040014010B50400AE
:1034300003D094F83D0010B107E0012010BD00203A
:1034400084F83C00204600F023F8022084F83D0078
:103450002068211D01F032FE012084F8480084F824
:103460003E0084F83F0084F8400084F8410084F86E
:10347000420084F8430084F8440084F8450084F84E
:10348000460084F8470084F83D00002010BD00008D
:1034900008B500680B49884212D10B48016841F019
:1034A0002001016000680022114600F02000009019
:1034B0003720FEF7A9FBBDE808403720FEF796BB92
:1034C00008BD000000140040E844025890F83D1088
:1034D000012901D001207047174A022180F83D10D0
:1034E0000168CB6843F00103CB600068904214D0C0
:1034F000B0F1804F11D0114988420ED01049884256
:103500000BD01049884208D00F49884205D00F4996
:10351000884202D00E49884207D181680D4A114085
:10352000062906D0B1F5803F03D0016841F00101C2
:1035300001600020704700000000014000040040CE
:1035400000080040000C004000040140001800404A
:1035500000400140070001002DE9F04104000D4644
:1035600003D094F83D0018B108E00120BDE8F081D7
:10357000002084F83C00204600F04CF8244A022049
:1035800084F83D0020688168114081602068211D19
:1035900001F094FD226840F20336AF6940F60C4C0E
:1035A0002B684FF2F00EA86891680B439169B14304
:1035B00041EA07210843D5E9031720EA0C00D5E9C1
:1035C000076C20EA0E00D2F820E03F0140EA062610
:1035D00068686D69314347EA0C37936023680F438D
:1035E00001219F612EF0AA0242EA051322681843C6
:1035F000106284F8481084F83E1084F83F1084F874
:10360000441084F8451084F83D100020AEE7000017
:10361000F8BFFEFF70B586B0054614216846FCF77A
:1036200026FF564900242B680225544A083954487D
:10363000B3F1804F26D0534EB34256D1136843F0B6
:1036400002031360126802F0020205920A6842F057
:1036500001020A60096801F001010591C021009191
:10366000CDE90154CDE903456946FEF7DDF80022B6
:103670001D201146FEF7C8FA5FF01D00FEF7B6FAEE
:1036800006B070BD136843F001031360126802F0C6
:10369000010205920A6842F001020A600A6802F01B
:1036A000010205920A6842F002020A6009680126D6
:1036B00001F00201059120210091CDE90154CDE9ED
:1036C00003466946FEF7B0F808200090CDE90154A2
:1036D0002D486946CDE90346FEF7A6F800221C20D6
:1036E0001146FEF791FA1C20C8E7284EB34221D1BB
:1036F000106840F004001060106800F004000590AD
:10370000086840F0080008600868694600F0080092
:1037100005904FF440500090CDE901541C48CDE98C
:103720000345FEF781F800221E201146FEF76CFAD1
:103730001E20A3E7174EB342A2D1136843F008033B
:103740001360126802F0080205920A6842F0010252
:103750000A60096801F00101059103210091CDE99A
:103760000154CDE903456946FEF75EF80022322098
:103770001146FEF749FA322080E70000E84402587B
:1037800000000258000400400004025800080040F5
:10379000000C0258000C004070B504464FF00200C7
:1037A00094F83E2094F83F5094F8446094F84530E3
:1037B00021B104290DD0012A1AD113E0012A17D111
:1037C000012E15D184F83E0084F8440000212068C1
:1037D00020E0012D0CD1012B0AD184F83F0084F8A0
:1037E000450014E0012D03D1012E01D1012B01D0A0
:1037F000012070BD84F83E0084F83F0084F8440046
:1038000084F8450001222068002101F0BDFC2068F9
:103810000122042101F0B8FC2068016841F0010197
:103820000160002070BD70472DE9F041044600683A
:103830000027C6680569A90713D5B10711D5FA1E77
:10384000026101212177206880698007204602D02B
:10385000FFF7E9FF04E000F0D1F8204600F040FA5D
:103860002777680716D5700714D5226802206FF0F5
:103870000401116120772068806910F4407F2046A0
:1038800002D0FFF7D0FF04E000F0B8F8204600F0C7
:1038900027FA2777280715D5300713D52268042083
:1038A0006FF00801116120772068C0698007204609
:1038B00002D0FFF7B8FF04E000F0A0F8204600F0C7
:1038C0000FFA2777E80616D5F00614D522680820E7
:1038D0006FF01001116120772068C06910F4407FFB
:1038E000204602D0FFF79FFF04E000F087F8204653
:1038F00000F0F6F92777E80708D0F00706D021682E
:103900006FF001000861204600F074FA280601D427
:10391000A80408D5300606D521686FF40250086166
:103920002046FFF7DEFCE80508D5300606D52168FD
:103930006FF4807008612046FFF7D2FC680608D556
:10394000700606D521686FF040000861204600F03F
:103950007DFAA8060AD5B00608D521686FF02000C8
:1039600008612046BDE8F041FFF7BCBCBDE8F0812E
:1039700010B586B0044614216846FCF778FD1A4A53
:1039800000202368194993424FF0020212D10B68BC
:1039900043F010030B600968012301F01001059149
:1039A0004FF4D4410091CDE90120CDE90303104843
:1039B000694614E00F4CA34213D10B6843F0040393
:1039C0000B600968032301F0040105914FF4E071D5
:1039D0000091CDE90120CDE9030307486946FDF7D1
:1039E00023FF06B010BD000000000140E044025873
:1039F000001002580004014000080258704770B5DA
:103A0000044690F83C0000260D4601280BD001200A
:103A100084F83C000C2A4AD007DC82B1042A20D06A
:103A2000082A06D131E0022070BD102A53D0142A92
:103A300063D00126002084F83C00304670BD206829
:103A400001F0B0FB2068816941F0080181612068C4
:103A5000816921F00401816120682A69816911432B
:103A600011E0206801F0F0FB2068816941F40061F9
:103A700081612068816921F4806181612068296900
:103A8000826942EA01218161D4E7206801F028FCC3
:103A90002068C16941F00801C1612068C16921F055
:103AA0000401C16120682A69C169114311E02068DD
:103AB00001F062FC2068C16941F40061C1612068C5
:103AC000C16921F48061C16120682969C26942EA43
:103AD0000121C161AEE7206801F08AFC2068416DD8
:103AE00041F0080141652068416D21F00401416504
:103AF00020682A69416D114311E0206801F0B2FC91
:103B00002068416D41F4006141652068416D21F4F8
:103B10008061416520682969426D42EA0121416561
:103B200088E710B5040003D094F83D0010B107E019
:103B3000012010BD002084F83C00204600F022F84F
:103B4000022084F83D002068211D01F0B7FA012011
:103B500084F8480084F83E0084F83F0084F8400070
:103B600084F8410084F8420084F8430084F844005B
:103B700084F8450084F8460084F8470084F83D0046
:103B8000002010BD2DE9F84F504A07460168504803
:103B900091421ED1016841F00101016000680022DC
:103BA000114600F0010000901820FEF72DF81820B3
:103BB000FEF71CF8002219201146FEF725F81920FF
:103BC000FEF714F800221A201146FEF71DF81A20FD
:103BD00075E0404A914276D1016841F002010160EE
:103BE000006800243C4E2F253C4B00F00200009062
:103BF0004FF480694FF40068304633604FF4005A48
:103C0000C6E90154C6F81480C6E90349C6E906A40A
:103C100034627462FDF726FC08B1FCF7ACFD2E4D52
:103C20004FF0300C2D4B78357E62B7631833284641
:103C30002B60C5E901C4C5F81480C5E90349C5E98D
:103C400006A42C626C62FDF70DFC08B1FCF793FD35
:103C5000214E3123214AF036BD623032AF63304607
:103C600086E81C00C6F81480C6E90349C6E906A424
:103C700034627462FDF7F6FB08B1FCF77CFD0022AC
:103C8000FE622B201146B763FDF7BEFF2B20FDF728
:103C9000ADFF00222C201146FDF7B6FF2C20FDF7CA
:103CA000A5FF00222D201146FDF7AEFF2D20FDF7C8
:103CB0009DFF00222E201146FDF7A6FF2E20BDE815
:103CC000F84FFDF793BFBDE8F88F000000000140FA
:103CD000F0440258000401401C030024700002401C
:103CE0007047000030B504464FF0020269B1042964
:103CF00012D0082917D00C291CD0102921D094F8F3
:103D00004300012824D0012030BD94F83E00012852
:103D1000F9D184F83E201DE094F83F000128F2D14B
:103D200084F83F2016E094F840000128EBD184F895
:103D300040200FE094F841000128E4D184F84120AC
:103D400008E094F842000128DDD184F8422001E027
:103D500084F843200122206801F016FA1B4B2068EA
:103D60001B491C4A984209D0884207D0904205D08E
:103D7000194DA84202D0194DA84203D1456C45F413
:103D8000004545642068984212D0B0F1804F0FD0B2
:103D9000134B98420CD0134B984209D0124B9842C7
:103DA00006D0884204D01149884201D0904207D100
:103DB00081680F4A1140062906D0B1F5803F03D033
:103DC000016841F001010160002030BD00000140A8
:103DD000000401400040014000440140004801400F
:103DE0000004004000080040000C004000180040A3
:103DF0000700010070B5104C054694F901002178C8
:103E000010FB01F10D4800F093FB0D492868884232
:103E100006D10120A070BDE87040084800F010BB3A
:103E20000849884201D1072003E00749884201D1AF
:103E30000820A07070BD00000000002418000024BD
:103E4000000001400014004000040140704730B5FC
:103E500090F88410012918D0012280F884202421B0
:103E6000C0F888100022202401680B680D6823F038
:103E7000005325F001050D60426601680B60C0F833
:103E8000884080F88420104630BD022030BD704745
:103E9000704770B5044690F8840001281DD00122B7
:103EA00084F884202420C4F888002068056802680B
:103EB00022F0010202602068826822F060620A43F8
:103EC0008260204601F008FB226820210020156056
:103ED000C4F8881084F8840070BD022070BD70B5ED
:103EE000044690F8840001281DD0012284F8842023
:103EF0002420C4F8880020680568026822F00102C6
:103F000002602068826822F060420A438260204694
:103F100001F0E2FA2268202100201560C4F8881020
:103F200084F8840070BD022070BD704770477047F0
:103F30002DE9F04107680025044640F60F030226EC
:103F4000F8693968BA6818420AD183067ED501F04B
:103F5000200302F0805C53EA0C0377D0616F7EE1AE
:103F6000D44BDFF854C3134001EA0C0C53EA0C0C99
:103F70006CD05FEAC07C0CD05FEAC15C09D54FF021
:103F8000010CC7F820C0D4F8907047F00107C4F8BE
:103F90009070870709D5D70707D027683E62D4F805
:103FA000906046F00406C4F8906046070AD5D6072C
:103FB00008D0276804263E62D4F8906046F00206D6
:103FC000C4F8906006070CD501F020061E4308D007
:103FD000266808233362D4F8903043F00803C4F80D
:103FE000903003050BD54B0109D526684FF40063CB
:103FF0003362D4F8903043F02003C4F89030D4F802
:104000009030002B3DD0800609D501F0200002F051
:104010008051084303D0616F09B120468847216869
:10402000D4F890008968490602D410F0280F2AD0ED
:10403000204601F035FB2068806840061ED52068C8
:10404000083050E8001F21F0400100E021E040E886
:104050000012002AF3D1D4F8800078B197490165A5
:10406000D4F88000FCF748FD00280AD0D4F880007E
:10407000016D00E02046BDE8F04108472046FFF70B
:1040800056FFBDE8F0812046FFF751FFC4F890507D
:10409000F7E7D4F86CC02023BCF1010F7ED15FEAB2
:1040A000C06C7BD55FEAC16C78D51020386220687F
:1040B0008068400673D5D4F8802081491068884212
:1040C00034D07F491831884230D07D493031884220
:1040D0002CD07B494831884228D0794960318842C8
:1040E00024D077497831884220D075499031884270
:1040F0001CD07349A831884218D07249884215D023
:1041000070491831884211D06E49303188420DD043
:104110006C494831884209D06A496031884205D0EB
:1041200068497831884201D06649903140684FF43F
:1041300080770004000C40D0B4F85C1081423CD978
:10414000A4F85E00D069B8422FD0216851E8000F72
:1041500020F4807041E80002002AF6D1206808307F
:1041600050E8001F21F0010140E80012002AF5D1BB
:104170002068083050E8001F21F0400140E800129C
:10418000002AF5D1C4F88C30E566206850E8001F9D
:1041900021F0100140E80012002A01E04AE019E095
:1041A000F3D1D4F88000FCF7F7FA2667B4F85C0086
:1041B000B4F85E10401A81B208E0B4F85C10814295
:1041C0007FF466AFD069B842FAD126672046FFF780
:1041D0005EFE56E7B4F85C00B4F85E10B4F85E20FA
:1041E000401A81B2002AF4D00029F2D0226852E8A5
:1041F000000F20F4907042E80007002FF6D1324FF4
:10420000206800F1080050E8002F02EA070240E8A9
:10421000002CBCF1000FF3D1C4F88C30E566656763
:10422000226852E8000F20F0100042E80003002B43
:10423000F6D1CAE7C60209D5560207D54FF4801059
:1042400038622046BDE8F041FFF770BE06060AD589
:1042500001F0800602F40002164304D0A16F002989
:104260007FF408AF0DE7420611D54A060FD5204668
:10427000016851E8002F22F0400241E80024002CA0
:10428000F6D1C0F88830856700F0D8F8F9E6020268
:1042900006D54A0004D52046BDE8F041FFF745BEEB
:1042A000C00196D5002994DA2046BDE8F041FFF719
:1042B000EFBD000001000010200100048F5600082F
:1042C0001000024010040240FEFFFFEF10B5040092
:1042D00003D0D4F8880010B107E0012010BD002001
:1042E00084F88400204600F027F82420C4F88800D1
:1042F0002068016821F001010160A06A10B1204628
:1043000001F00CF9204601F0F5F90128E6D020680B
:10431000416821F4904141602068816821F02A01C0
:1043200081602068016841F0010101602046BDE81C
:10433000104001F057B900002DE9F041B6B0044635
:10434000142130A8FCF793F8C0216846FCF78FF8D9
:104350003849022620680727344D0024DFF8D08032
:1043600088422ED100201F940121CDE9001068461B
:10437000FDF7FCFD08B1FCF7FEF92C481030016890
:1043800041F010010160006800F0100035902868CD
:1043900040F001002860286830A900F00100359045
:1043A0004FF4C0603090CDE93164CDE933474046E9
:1043B000FDF73AFA002225201146FDF725FC2520BD
:1043C0002FE01D4988422ED100201E940221CDE904
:1043D00000106846FDF7CAFD08B1FCF7CCF9134898
:1043E0000830016841F400310160006800F40030D9
:1043F0003590286840F001002860286830A900F056
:10440000010035900C203090CDE93164CDE933477F
:104410004046FDF709FA002226201146FDF7F4FB7D
:104420002620FDF7E3FB36B0BDE8F081E0440258FA
:104430000000025800100140004400407047FEE7B1
:1044400010B5044690F83800012838D0FDF70EFB6F
:10445000E26A01462063821A322A30D9012084F8A8
:104460003800B4F928006085A3681B685B6A1BB23A
:104470002385181A6263B0F5004FE16202DDA0F5F2
:10448000803004E010F5004F01DA00F580304EF680
:104490006023002184F8381000EE102A5843B8EE4B
:1044A000402B00EE100A9FED061BB8EEC03B83EEDA
:1044B000010B80EE021BB7EEC10B84ED080A10BDA4
:1044C0000000000000A094402DE9F0410DF1180813
:1044D0000D46044698E803100DF1240898E8C04002
:1044E0002560002522710122C4E902302183C4F82D
:1044F00010C066836761A4F81CE06585E5622585C8
:10450000256384F83850FDF7A5FA21792068FFF774
:10451000E9FBA0683C21FFF73FF9044800684562C9
:10452000A0680068406A6062BDE8F0815401002420
:1045300070B50446006964290D46618B01DD642570
:1045400007E06FF06302954201DA15463CE0052D65
:1045500037DD0122FDF77EFAA18B00226069FDF7AD
:1045600079FA207978B1042814D0082819D00C28B9
:104570001ED01028206805EB85014FEA4101006834
:104580001DD0C16570BD206805EB8501490000683C
:10459000416370BD206805EB8501490000688163B7
:1045A00070BD206805EB850149000068C16370BDDE
:1045B000206805EB850149000068016470BD8165D4
:1045C00070BD15F1050F37DA0022FDF743FAA18B14
:1045D00001226069FDF73EFA207978B1042814D0F1
:1045E000082819D00C281ED0102820686FF0090167
:1045F00005FB01F500681DD0C56570BD20686FF032
:1046000009014D430068456370BD20686FF00901E2
:104610004D430068856370BD20686FF009014D430C
:104620000068C56370BD20686FF009014D430068E4
:10463000056470BD856570BD0022FDF70BFAA18B86
:1046400000226069FDF706FA2179002059B104299A
:104650000DD008290FD00C2911D010292168096824
:1046600011D0C86570BD21680968486370BD2168B4
:104670000968886370BD21680968C86370BD2168D6
:104680000968086470BD886570BD0000114808B5F0
:10469000016841F00101016000680022114600F04C
:1046A000010000900F20FDF7AFFA0F20FDF79EFAF2
:1046B000002210201146FDF7A7FA1020FDF796FA08
:1046C000002211201146FDF79FFABDE80840112095
:1046D000FDF78CBAD84402582DE9F04786B0142172
:1046E0006846FBF7C4FE3448016841F010010160E0
:1046F000016801F010010591016841F0800101603D
:10470000016801F080010591016841F0010101603B
:10471000016801F001010591016841F002010160A9
:10472000016801F002010591016841F00801016092
:10473000016801F008010591016841F00401016080
:1047400000680022DFF874800C2100F0040005905E
:104750004046FDF77FF9DFF868904FF47846002275
:1047600031464846FDF776F9DFF858A04FF47067F8
:10477000002239465046FDF76DF9002469460125AF
:104780000C200090CDE9015440460394FDF74CF80D
:1047900000966946CDE9015448460394FDF744F874
:1047A00000976946CDE9015450460394FDF73CF863
:1047B00006B0BDE8F0870000E0440258001002583F
:1047C00000040258000C025830B595B00024684629
:1047D0001C21129413941494FBF749FE2C2107A872
:1047E000FBF745FE2F48EF222D49802540F2E733A5
:1047F00080E81600C0E90334C0E90545FFF791F9E8
:1048000008B1FBF7B8FF274812A912941394149427
:10481000FEF7BAFD08B1FBF7AEFF60206946CDE9AF
:104820000004204800220294039404940594069402
:10483000FFF7E5F808B1FBF79EFF1A480422694626
:10484000FFF7DDF808B1FBF796FF16480822694626
:10485000FFF7D5F808B1FBF78EFF12480C22694626
:10486000FFF7CDF808B1FBF786FF4FF4005007942F
:104870000894099401030A94CDE90B40CDE90E4157
:10488000084807A90D9410941194FEF72DFD08B166
:10489000FBF771FF0348FFF76BF815B030BD000060
:1048A000000001400801002430B58DB02421684685
:1048B000FBF7DDFD1548002401214FF6FF72099436
:1048C00003238D070A940B94C0E90054C0E9024207
:1048D000046184610093CDE9014103940494CDE91E
:1048E0000541694607940894FEF736FE08B1FBF7C8
:1048F00042FF064809A909940B94FEF745FD0028DC
:1049000001D0FBF738FF0DB030BD0000540100248A
:1049100030B58DB024216846FBF7A9FD1648002468
:104920004FF6FF72134D099401210A9403230B944F
:10493000C0E90054C0E90242046184610093CDE9FA
:10494000014103940494CDE9054169460794089414
:10495000FEF702FE08B1FBF70EFF074809A909940C
:104960000B94FEF711FD002801D0FBF704FF0DB0FA
:1049700030BD000000040040A001002430B58DB01F
:1049800024216846FBF773FD164800244FF6FF729A
:10499000134D099401210A9403230B94C0E9005498
:1049A000C0E90242046184610093CDE901410394AE
:1049B0000494CDE90541694607940894FEF7CCFDBF
:1049C00008B1FBF7D8FE074809A909940B94FEF734
:1049D000DBFC002801D0FBF7CEFE0DB030BD00009F
:1049E00000080040EC01002430B58DB02421684659
:1049F000FBF73DFD164800244FF6FF72134D099456
:104A000001210A9403230B94C0E90054C0E9024237
:104A1000046184610093CDE9014103940494CDE9DC
:104A20000541694607940894FEF796FD08B1FBF727
:104A3000A2FE074809A909940B94FEF7A5FC0028DB
:104A400001D0FBF798FE0DB030BD0000000C004017
:104A5000380200243EB5104800244FF6FF710D4B7C
:104A6000EF22009401940294C0E902418461C0E9FC
:104A70000032FEF7DBFC08B1FBF77DFE0648694615
:104A800000940294FEF780FC002801D0FBF773FE2F
:104A90003EBD0000001400408402002430B595B0F3
:104AA000002468461C21129413941494FBF7DFFC35
:104AB0002C2107A8FBF7DBFC2B48EF222949802596
:104AC00040F2E73380E81600C0E90334C0E9054549
:104AD000FFF727F808B1FBF74EFE234812A91294FE
:104AE00013941494FEF750FC08B1FBF744FE6020C9
:104AF0006946CDE900041C48002202940394049402
:104B000005940694FEF77BFF08B1FBF734FE1648C8
:104B100004226946FEF773FF08B1FBF72CFE12482A
:104B200008226946FEF76BFF08B1FBF724FE4FF43D
:104B3000005007940894099401030A94CDE90B40AE
:104B4000CDE90E41084807A90D9410941194FEF781
:104B5000CBFB08B1FBF70FFE0348FEF709FF15B0CA
:104B600030BD000000040140D0020024184800219C
:104B700010B5164C0C224FF4E1330460C0E901314A
:104B8000C160C0E904128161C16101624162816258
:104B9000FFF79CFB08B1FBF7EEFD0D480021FFF786
:104BA0009EF908B1FBF7E7FD09480021FFF771F90D
:104BB00008B1FBF7E0FD0648FFF749F9002803D0EC
:104BC000BDE81040FBF7D7BD10BD0000001001404C
:104BD000840400241848002110B5164C0C224FF410
:104BE000E1330460C0E90131C160C0E904128161B0
:104BF000C161016241628162FFF768FB08B1FBF7A6
:104C0000BAFD0D480021FFF76AF908B1FBF7B3FDC3
:104C100009480021FFF73DF908B1FBF7ACFD064854
:104C2000FFF715F9002803D0BDE81040FBF7A3BD3E
:104C300010BD00000044004018050024FEE7FEE718
:104C4000704700002DE9F047454D044689464FF076
:104C5000000A2868C04380070AD0414E283E3068C9
:104C600020F080603060FCF701FF0746B04608E0A6
:104C70000120BDE8F08700BFFCF7F8FEC01B02284A
:104C800067D8D8F800000001F6D4206829684FF4EE
:104C9000FE0721F47C313E0241EA00302860207A90
:104CA000A389B4F804C040022D4D2D495B1E227C1F
:104CB000ACF1010C1035091DA0F5007080B2521E38
:104CC000CCF3080C07EA034340EA0C00184306EA59
:104CD0000262104328600868626920F0C000104337
:104CE00008600A68A06922F0200202430A60281DB9
:104CF0000A6822F010020A6002684FF6F873E4694D
:104D00009A4342EAC40202600868B9F1000F40F019
:104D100010020A6011D00868B9F1010F11D040F4F7
:104D200000100860D8F80000444640F08060C8F8E1
:104D30000000FCF79BFE05460DE0086840F40020EB
:104D4000EFE740F48010ECE7FCF790FE401B0228F0
:104D500001D903208DE720680001F5D5504688E78A
:104D6000284402582DE9F047454D044689464FF046
:104D7000000A2868C04380070AD0414E283E3068A8
:104D800020F080503060FCF771FE0746B04608E026
:104D90000120BDE8F08700BFFCF768FEC01B0228B9
:104DA00067D8D8F800008000F6D4208829684FF42E
:104DB000FE0721F07C713E0241EA00502860207A13
:104DC000A389B4F804C040022D4D2D495B1E227CFE
:104DD000ACF1010C1835091DA0F5007080B2521E0F
:104DE000CCF3080C07EA034340EA0C00184306EA38
:104DF0000262104328600868626920F44060104332
:104E000008600A68A06922F4007202430A60281D43
:104E10000A6822F480720A6002684FF6F873E46947
:104E20009A4342EAC40202600868B9F1000F40F4F4
:104E300080720A6011D00868B9F1010F11D040F0FA
:104E400080700860D8F80000444640F08050C8F8F0
:104E50000000FCF70BFE05460DE0086840F48000FA
:104E6000EFE740F40000ECE7FCF700FE401B0228EF
:104E700001D903208DE720688000F5D5504688E7EA
:104E80002844025870477047FCF7F6BD70B59CB0D7
:104E90004C216846FBF7EBFA202113A8FBF7E7FA51
:104EA0000220FCF7E3FE214800242149026842F475
:104EB0004042026002680A6842F001020A60096822
:104EC00001F001011B9101688904FCD502200090CA
:104ED000402504950121039104220B923C23CDE946
:104EE0000904CDE90C300FAB08260E960C2183E89F
:104EF000130068461294FDF71FFF08B172B6FEE773
:104F00004FF480621A953F200321CDE9185213AA6D
:104F1000CDE9166582E81300042113A8FDF7FCFC17
:104F2000002801D072B6FEE71CB070BD18480258C8
:104F30002C0400583348F0B5334A016841F470013D
:104F40000160106800F00F00072804D2106820F0FC
:104F50000F00C01D10602D4900202C4C10340B6830
:104F60002B4D43F001030B6020600B682B400B605E
:104F7000136803F00F03072B04D9136823F00F0302
:104F8000DB1D1360214C234A1834234B261D371D8B
:104F900020601E4C214D28343060261D3860371D9E
:104FA00023603B1D35601C1D3A60251D2E1D1860B9
:104FB000331D22602860326018600A68134B184C59
:104FC00022F4802260330A60186020686FF30F00BB
:104FD000B0F1005F03D213490120C1F808010B486A
:104FE000D4300168C9040BD4026843F2D2010E4BDD
:104FF00042F4805202601960016821F4805101601E
:10500000F0BD000088ED00E000200052004402588E
:105010007FEDF6EA80020101000202020000FF01BA
:105020000010005C00800051004000520148FEF773
:10503000FBBB0000080100240148FEF7F5BB00009F
:10504000080100240148FEF7EFBB0000080100241E
:105050000148FEF7E9BB0000540100240148FEF7B7
:10506000E3BB0000A00100240148FEF7DDBB000007
:10507000EC0100240148FEF7D7BB000038020024F1
:105080000148FEF7D1BB0000840200240148FEF76E
:10509000CBBB0000D00200240148FEF7C5BB0000D6
:1050A000D00200240148FEF7BFBB0000D00200245C
:1050B0000148FEF7B9BB0000D00200242DE9F047FB
:1050C000294B4FF0804A294D02689842284E294FBB
:1050D000294C09D0504507D0A84205D0B04203D092
:1050E000B84201D0A04205D1D1F804C022F070022C
:1050F0004CEA0202DFF884C0DFF884809842DFF8CF
:1051000084900FD050450DD0A8420BD0B04209D0AA
:10511000B84207D0A04205D0604503D0404501D039
:10512000484503D1CD6822F440722A438E684D6908
:1051300022F08002C6620E682A439842866207D037
:10514000A04205D0604503D0404501D0484501D17B
:10515000096901630368012143F0040303604161AD
:105160000260BDE8F087000000000140000400403C
:1051700000080040000C00400004014000400140D5
:10518000004401400048014010B5046A012301F0C9
:105190001F018B409C4304628A40016A11430162F3
:1051A00010BD00002DE9F04FDFF88480214EDFF8BC
:1051B0008890DFF888B0026A036AB042DFF880A006
:1051C00022F0020C1F4F23F001020262426885693F
:1051D0008B680C6805EA080525F0030543EA0C0313
:1051E00044EA050407D0484505D0584503D050454A
:1051F00001D0B84205D1CD6823F008031D4325F046
:105200000403B04207D0484505D0584503D0504567
:1052100001D0B84205D122F44076D1E90552354398
:105220002A4342608461496841630362BDE8F08FAC
:105230008FFFFEFF000001400004014000400140DC
:105240000044014000480140F0B5DFF87CE01F4C0D
:105250001F4D026A036AA04222F0200623F01003C9
:10526000036242688369D1F808C00F6803EA0E033D
:1052700023F4407E46EA0C134EEA072601D0A842EA
:1052800006D1CF6823F0800343EA071323F04003DD
:10529000A0420AD0A84208D00E4CA04205D00E4C25
:1052A000A04202D00D4CA04207D1D1E9054522F41D
:1052B000406242EA840242EA8502426086614968AD
:1052C00081630362F0BD0000FF8FFFFE000001401C
:1052D00000040140004001400044014000480140FA
:1052E000F0B5DFF87CE01F4D1F4E026A036AA8424A
:1052F00022F4007723F4807303624368C269D1F813
:1053000008C002EA0E020C6822F0030E47EA0C22E3
:1053100044EA0E0401D0B04206D1CF6822F4006204
:1053200042EA072222F48062A8420AD0B04208D0A2
:105330000E4DA84205D00E4DA84202D00D4DA842F8
:1053400007D1D1E9055623F4405343EA051343EA54
:1053500006134360C4614968C1630262F0BD000086
:105360008FFFFEFF000001400004014000400140AB
:105370000044014000480140F0B5046A026A22F48A
:10538000805202624268C36924F40054DFF848C0C6
:105390008E680D6803EA0C03104F23F4407344EA4F
:1053A0000634B84243EA05230BD00D4DA84208D07D
:1053B0000C4DA84205D00C4DA84202D00B4DA8427E
:1053C00004D14D6922F4804242EA85124260C361F1
:1053D000496801640462F0BDFF8FFFFE00000140D8
:1053E00000040140004001400044014000480140E9
:1053F000F0B5164F164B026A046A984222F4003543
:1054000024F4803303624268436D0E890C6803EA1A
:10541000070344EA030445EA06430BD00D4DA842B6
:1054200008D00D4DA84205D00C4DA84202D00C4D1D
:10543000A84204D14D6922F4803242EA052242603A
:105440004465496881650362F0BD00008FFFFEFF7F
:1054500000000140000401400040014000440140C0
:1054600000480140F0B5164F164B026A046A984294
:1054700024F48013036222F400144268436D0E8901
:105480000D6803EA070344EA065443EA05230BD0F8
:105490000D4DA84208D00D4DA84205D00C4DA84294
:1054A00002D00C4DA84204D14D6922F4802242EA78
:1054B0008522426043654968C1650462F0BD000011
:1054C000FF8FFFFE0000014000040140004001404A
:1054D000004401400048014030B5416EB9B1016857
:1054E0000D4B03F108048A688968C2F34262490FD0
:1054F0005D5C615C2D01B5FBF1F1A0F86A10995C6F
:10550000A25C0901B1FBF2F1A0F8681030BD0121E5
:10551000A0F86A10F8E70000B65C000890F82810C0
:10552000090706D50168836B4A6822F400421A43D2
:105530004A6090F82810C90706D00168C36A4A6813
:1055400022F400321A434A6090F82810890706D5E1
:105550000168036B4A6822F480321A434A6090F86B
:105560002810490706D50168436B4A6822F4802257
:105570001A434A6090F82810C90606D50168C36B23
:105580008A6822F480521A438A6090F828108906AB
:1055900006D50168036C8A6822F400521A438A60B7
:1055A00090F82810490611D50168436C4A6822F426
:1055B00080121A434A60416CB1F5801F06D1016820
:1055C000836C4A6822F4C0021A434A6090F828109B
:1055D000090606D50168C26C486820F40020104313
:1055E000486070472DE9F84300250446C0F8905004
:1055F000FCF73CFA8046206820266FF07E47006862
:10560000000713D50022434631042046009700F0DE
:1056100047FA58B1216851E8000F20F0800041E8B6
:105620000002002AF6D1C4F8886021E020680068F2
:10563000400722D5002243464FF4800120460097C0
:1056400000F02EFAC8B1206850E8001F21F49071D4
:1056500040E80012002AF6D12068083050E8001F08
:1056600021F0010140E80012002AF5D1C4F88C6055
:10567000032084F88450BDE8F883C4F88860C4F837
:105680008C60E5662567002084F88450F3E710B548
:10569000806B0021A0F85E10FEF749FC10BD0000F1
:1056A00010B5026852E8001F21F4907142E800131F
:1056B000002BF6D10E4B0268083252E8001F194049
:1056C00042E80014002CF6D1C16E012908D102680D
:1056D00052E8001F21F0100142E80013002BF6D120
:1056E00000212022C0F88C20C166416710BD000057
:1056F000FEFFFFEF2DE9F04304468068D84E87B0E7
:10570000D84B2168D4E90427D4F81CC010430A6898
:10571000002547EA0C073843324002430A602068FC
:10572000E268416821F44051114341602268A16957
:105730009A4201D0206A01439768DFF82CC3CB4E10
:10574000CB4807EA0C070F4397602168676ACA6A6B
:1057500022F00F023A43CA622268B2420ED10068B8
:1057600000F03800182873D047DCB8B3082879D087
:1057700010286FD178E028287ED17BE0BD498A428D
:1057800009D1006800F00700062875D2DFE800F0B4
:10579000546A6C6E7072B8498A4209D1006800F090
:1057A0000700062868D2DFE800F0475D5F616365A7
:1057B000B2498A4209D1006800F0070006285BD28E
:1057C000DFE800F03A5052545658AD498A420BD1A6
:1057D000006800F0070006284ED200E010E0DFE885
:1057E00000F02B4143454749A6498A420AD1006847
:1057F00000F03800182839D0B7DD2028BBD13CE0B4
:1058000001203AE0A0498A4209D1006800F007006F
:10581000062831D2DFE800F01026282A2C2E9B49DA
:105820008A420BD1006800F00700062824D2DFE886
:1058300000F003191B1D1F2100201EE09A421BD1FE
:105840008B48001D006800F00700062814D202E013
:105850000CE007E010E0DFE800F0030507090B0D9E
:1058600002200AE0042008E0082006E0102004E0FE
:10587000202002E0402000E080208549DFF81482EB
:105880009A42854A4FF400434FEA21174FF0000631
:105890004ED110281AD006DC022809D004280BD0DB
:1058A00008287CD10DE020283ED0402877D13DE06B
:1058B000FCF706FA014610E06846FCF713FA019976
:1058C0000BE003A8FCF7B0FA049906E01068800624
:1058D00005D51068C0F3C100C140002970D0606ACE
:1058E000676838F8102007EB4703B1FBF2F08342FA
:1058F00055D8B0EB073F52D8002308461946FAF7AF
:105900003FFD02467808130E120243EA01211018E7
:105910003A4671410023FAF733FD604AA0F5407121
:1059200091423CD821688FE03946D8E71946D6E73E
:10593000D4F81CC04FF6EF799C4546D1082819D001
:1059400005DC58B101280CD0042875D10DE01028D1
:1059500015D0202835D040286ED134E0FDF72CF941
:1059600001E0FDF73BF9014610E06846FCF7BAF9A3
:1059700001990BE003A8FCF757FA049906E01068B8
:10598000800604D51068C0F3C100C140C1B1636A8C
:10599000606838F81330B1FBF3F1490000E04BE0E8
:1059A00001EB5001B1FBF0F0A0F11001494543D8E3
:1059B0004FF6F0732168C0F342021840104343E0F1
:1059C00043E03946E3E71946E1E7082819D005DC4A
:1059D00058B101280CD004282ED10DE0102815D084
:1059E00020282BD0402827D12AE0FDF7E5F801E058
:1059F000FDF7F4F8014610E06846FCF773F90199E9
:105A00000BE003A8FCF710FA049906E01068800682
:105A100004D51068C0F3C100C140B1B1636A6068C9
:105A200038F81330B1FBF3F101EB5001B1FBF0F0AA
:105A3000A0F11001494505D9012506E03946EDE7F9
:105A40001946EBE7216880B2C8600120A4F86A001B
:105A5000A4F8680028466667A66707B0BDE8F0832B
:105A6000F369FFCF000C0058FFF4FF110010014054
:105A7000544402580044004000480040004C00409C
:105A8000005000400014014000780040007C0040BD
:105A90000090D0039E5C000800440258FFFC0F00F9
:105AA0002DE9F047994617460D460446089E4FF0EB
:105AB000000833E0701C31D0FBF7D8FFA0EB0900E1
:105AC000B04218D8BEB120680168490726D5802D9C
:105AD00024D0402D22D0C169C94309070DD408251F
